:100000008CC00000A7C00000A5C00000A3C0000075
:10001000A1C000009FC000009DC0000010C10000F2
:100020001FC1000098C0000095C0000093C00000F0
:1000300091C000008FC000008DC00000E9C000002A
:1000400089C0000087C0000085C0000083C0000098
:1000500081C000007FC000007DC000007BC00000A8
:1000600079C0000077C0000075C0000073C00000B8
:1000700071C000006FC000006DC000006BC00000C8
:1000800069C0000067C0000065C00000110249029D
:10009000B3020C034F03C6017D0387039C03C60113
:1000A000C601C601C601C601C601C601C601C60118
:1000B000C601C601C601C601C601C601C601C60108
:1000C000C601C601C601C601C601C601C601C601F8
:1000D000C601C601C601C601C601C601C601C601E8
:1000E000C601C601C601C601C601C601C601C601D8
:1000F000B103C6010002C601C601C601C601C601A0
:10010000C601C601C601C601C601C601D701C601A6
:10011000C601C601C601C601EA0111241FBECFEF08
:10012000D0E1DEBFCDBF11E0A0E0B1E0EAE2FAE04D
:1001300000E00BBF02C007900D92A831B107D9F7BC
:1001400021E0A8E1B1E001C01D92AA33B207E1F7B6
:10015000B6D069C455CF1F920F920FB60F921124DB
:100160000BB60F922F933F934F935F936F937F93B1
:100170008F939F93AF93BF93EF93FF9323B190918E
:100180001E0130E2939FC0011124822783B9209180
:100190001E01EFE1F1E082819381289FA001299F58
:1001A000500D1124052E000C660B770B8481958170
:1001B000A681B781480F591F6A1F7B1F448355834F
:1001C00066837783DB01CA0177231CF40196A11DA6
:1001D000B11DB595A7959795879580932701909325
:1001E0002801A0932901B0932A01FF91EF91BF91BB
:1001F000AF919F918F917F916F915F914F913F91BF
:100200002F910F900BBE0F900FBE0F901F9018955F
:100210001F920F920FB60F9211248F939F9380918C
:10022000190190911A01019690931A018093190176
:100230009F918F910F900FBE0F901F9018951F9256
:100240000F920FB60F9211248F9387B7826087BFEA
:1002500083E181BF8F910F900FBE0F901F90189573
:100260001F920F920FB60F9211242F933F936F930B
:100270007F938F939F93AF93BF9387B717BE2091C0
:10028000190130911A01ABEABAEABED39695879567
:100290009695879590931D0180931C0110921A01E9
:1002A00010921901BF91AF919F918F917F916F91A2
:1002B0003F912F910F900FBE0F901F901895F894BB
:1002C00042E062E08FE191E0C7D26ED26091060118
:1002D0007091070181E085D2609104017091050160
:1002E00082E07FD2609102017091030183E079D2B4
:1002F000609100017091010184E073D280E096E981
:100300000AD310921A011092190110921B01109237
:100310001D0110921C016EE170E08FE191E0AED200
:1003200080E380933901789481E0809318010F2E47
:10033000F4EFEF2EFF24F394F02D02EE14E0C4E36B
:10034000D8E00F2EF2E7CF2EF6E0DF2EF02D812C35
:10035000912C0F2EF6E4AF2EB12CF02D0F2EF0E1E4
:100360006F2EF7E27F2EF02D0F2EF8E54F2EF02D99
:100370006894552451F80F2EF6E43F2EF02D0F2EE1
:10038000F5E02F2EF02D02C0812C912C5F9B03C035
:10039000AED280933901E09139018E2F90E0FC01BB
:1003A000F197E734F10590F7EA5BFF4F24C30F2E76
:1003B000F4EFEF2EF02DFF24F39402EE14E024E38B
:1003C000C22F88E0D82F0F2EF2E7CF2EF6E0DF2ED7
:1003D000F02DDCCF0F2EF6E2EF2EF02D6894FF24E7
:1003E000F1F804E115E09AECC92F28E0D22F0F2E86
:1003F000F6EDCF2EF02D0F2EF6E0DF2EF02DC6CF2E
:10040000E42CF52C032D122D80E6C82F99E0D92F6E
:100410000F2EFAE3CF2EF02D0F2EF7E0DF2EF02D6A
:10042000B5CF66E470E084E0DCD180912701909143
:100430002801A0912901B0912A01A60160E070E095
:1004400084179507A607B70744F4BB2334F061E08F
:1004500070E08FE191E034D299CF84179507A60719
:10046000B70709F093CF80911E01813039F41092C3
:100470001E01109239018093180105C08091180166
:10048000813009F083CF88E091E037D210921801D3
:100490007DCF8091270190912801A0912901B091F1
:1004A0002A01AE0160E070E084179507A607B70740
:1004B0008CF5BB237CF161E070E08FE191E000D22C
:1004C0002FEF821A920A9401329522952F702327DA
:1004D0003F702327A7E4B3E097D29695879596952A
:1004E000879596958795869D9001879D300D969D61
:1004F000300D11248216930609F048CF87E3A81621
:10050000B10408F443CF91E0A91AB108B50184E021
:1005100068D13CCF84179507A607B707C1F480912F
:100520001E01813039F410921E011092390180931E
:10053000180105C080911801813009F025CF8BE0AA
:1005400091E0DBD110921801812C912C1FCF48171C
:1005500059076A077B070CF019CF6FEF7FEF8FE128
:1005600091E0AED113CF8091270190912801A09105
:100570002901B0912A01A80160E070E08417950775
:10058000A607B70744F4BB2334F06FEF7FEF8FE18A
:1005900091E096D1FBCE84179507A607B707D9F44B
:1005A00080911E01813039F410921E0110923901A0
:1005B0008093180105C080911801813009F0E6CEC2
:1005C0008EE091E09AD1109218010F2EF6E4AF2E32
:1005D000B12CF02DDBCE481759076A077B070CF0CA
:1005E000D5CE6FEF7FEF8FE191E06AD12FEF821AC6
:1005F000920AC40160E27CE1ACD1892B09F0C6CE3D
:1006000087E4A816B10408F0C1CE9FEFA91AB90A71
:10061000B50184E0E6D0BACE66E470E084E0E1D0D3
:100620008091270190912801A0912901B0912A0180
:10063000A70160E070E084179507A607B70744F4A8
:10064000BB2334F06FEF7FEF8FE191E039D19ECE85
:1006500084179507A607B707B1F480911E01813072
:1006600039F410921E01109239018093180105C0CF
:1006700080911801813009F089CE81E191E03DD16E
:100680001092180183CE481759076A077B070CF0B0
:100690007DCE6FEF7FEF8FE191E012D177CE809129
:1006A000270190912801A0912901B0912A0100977A
:1006B000A105B105B1F480911E01813039F4109289
:1006C0001E01109239018093180105C08091180114
:1006D000813009F05BCE84E191E00FD110921801D6
:1006E00055CE181619061A061B060CF04FCE6FEFE2
:1006F0007FEF8FE191E0E4D049CE62E370E084E0E7
:1007000070D00F2EF2E3AF2EB12CF02D3FCEC501ED
:10071000C197479708F03ACEB50184E062D02FEF39
:100720008BED95E0215080409040E1F700C0000043
:1007300021E0A21AB1082ACE87E4A816B10408F075
:1007400025CEB50184E04DD09FEF2BED85E0915093
:1007500020408040E1F700C000009FEFA91AB90ACD
:1007600015CE6EE170E08FE191E088D08091270195
:1007700090912801A0912901B0912A01181619061B
:100780001A061B064CF481E080931E016FEF7FEF89
:100790008FE191E095D0FACD10921E0187B717BE78
:1007A0001D9A10923901F2CD8AEA8FBD2AE12EBD41
:1007B0008FE39CE997BD86BD32EA30938B0020938E
:1007C0008A0090938100809380001092850010929F
:1007D000840080E88ABB82B1886382B980EE87BBDF
:1007E00008958230A1F018F4813031F008958330FB
:1007F000C9F0843021F1089524E1269FC001279F8C
:10080000900D112480559B4F9BBD8ABD089524E116
:10081000269FC001279F900D112480559B4F99BDA5
:1008200088BD089524E1269FC001279F900D1124C3
:1008300080559B4F9093790080937800089524E130
:10084000269FC001279F900D112480559B4F9093A8
:100850008700809386000895FC018FEF84BB15BA52
:100860006083418381E090E09383828310861186C8
:1008700012861386148A82E085BB0895FC0180816C
:100880008230E9F480E991E0689F9001699F300D22
:10089000789F300D1124A9E8B8E8B6D096958795D1
:1008A000929582958F7089279F7089279C0140E0DF
:1008B00050E062E17AE780E090E081D023BD0895C6
:1008C000FC012081223091F421E020931E012CE0D4
:1008D00025BD20E827BF228133812617370731F055
:1008E00035B324E0232725BB7383628308958CB13D
:1008F00008955D9BFECF8CB90895CF93DF93EC01F3
:100900008881882329F02196F4DF89918111FCCF19
:10091000DF91CF9108959C0140E050E060E472E4E3
:100920008FE090E02AD0215031093093900029B90E
:100930001BB898E19AB986E08093950030939800AF
:100940002093990010929B0090939A0080939D00B1
:100950000895AA1BBB1B51E107C0AA1FBB1FA61706
:10096000B70710F0A61BB70B881F991F5A95A9F758
:1009700080959095BC01CD010895A1E21A2EAA1B85
:10098000BB1BFD010DC0AA1FBB1FEE1FFF1FA2173F
:10099000B307E407F50720F0A21BB30BE40BF50B3C
:1009A000661F771F881F991F1A9469F760957095C5
:1009B000809590959B01AC01BD01CF010895052E56
:1009C00097FB16F400940FD057FD05D0D6DF07FC37
:1009D00002D046F408C050954095309521953F4F80
:1009E0004F4F5F4F089590958095709561957F4F1B
:1009F0008F4F9F4F0895EE0FFF1F0024001C0BBE6A
:100A00000790F691E02D0994A29FB001B39FC00119
:100A1000A39F700D811D1124911DB29F700D811D2A
:0A0A20001124911D0895F894FFCFF2
:100A2A0046001200A40003002331002332002333BE
:080A3A00002334002335000005
:00000001FF
