:100000008CC00000A8C00000A6C00000A4C0000072
:10001000A2C00000A0C000009EC0000011C10000EE
:1000200020C1000099C0000096C0000094C00000EC
:1000300092C0000090C000008EC00000EAC0000026
:100040008AC0000088C0000086C0000084C0000094
:1000500082C0000080C000007EC000007CC00000A4
:100060007AC0000078C0000076C0000074C00000B4
:1000700072C0000070C000006EC000006CC00000C4
:100080006AC0000068C0000066C000009904AD04AA
:10009000C104D204E304F9040F051A059C069C066A
:1000A0009C069C069C069C069C069C069C069C0640
:1000B0009C069C069C069C069C069C069C069C0630
:1000C0009C069C069C069C069C069C069C069C0620
:1000D0009C069C069C069C069C069C069C069C0610
:1000E0009C069C069C069C069C069C06CC01DE0396
:1000F0008F06250541042A0568067C067E057605DF
:10010000AC05BF051C06D205860599059506820338
:1001100053059C069C069C062F0511241FBECFEF9D
:10012000D0E1DEBFCDBF11E0A0E0B1E0E2E8F4E154
:1001300000E00BBF02C007900D92A231B107D9F7C2
:1001400021E0A2E1B1E001C01D92A433B207E1F7C2
:10015000B8D00C943F0A54CF1F920F920FB60F9253
:1001600011240BB60F922F933F934F935F936F938E
:100170007F938F939F93AF93BF93EF93FF9323B19D
:100180009091180130E2939FC0011124822783B916
:1001900020911801E9E1F1E082819381289FA0017B
:1001A000299F500D1124052E000C660B770B8481BE
:1001B0009581A681B781480F591F6A1F7B1F448311
:1001C000558366837783DB01CA0177231CF401968C
:1001D000A11DB11DB595A795979587958093210190
:1001E00090932201A0932301B0932401FF91EF91FA
:1001F000BF91AF919F918F917F916F915F914F913F
:100200003F912F910F900BBE0F900FBE0F901F903C
:1002100018951F920F920FB60F9211248F939F93F0
:100220008091130190911401019690931401809391
:1002300013019F918F910F900FBE0F901F901895F3
:100240001F920F920FB60F9211248F9387B782607F
:1002500087BF83E181BF8F910F900FBE0F901F90DA
:1002600018951F920F920FB60F9211242F933F9360
:100270006F937F938F939F93AF93BF9387B717BE6F
:100280002091130130911401ABEABAEA0E941C0AD2
:10029000969587959695879590931701809316016B
:1002A0001092140110921301BF91AF919F918F9101
:1002B0007F916F913F912F910F900FBE0F901F90E4
:1002C0001895CF93DF93CDB7DEB728970FB6F89484
:1002D000DEBF0FBECDBFF89442E062E089E191E05D
:1002E000CED54AD647D5609106017091070181E0CD
:1002F0005ED5609104017091050182E058D560914E
:1003000002017091030183E052D560910001709168
:10031000010184E04CD580E895E210D610921401DA
:1003200010921301109215011092170110921601EC
:1003300060E570E089E191E0B4D580E3809333011A
:10034000789400E315E724E630E03E832D830F2EFA
:10035000F0E42F2EF6E03F2EF02D1C821B8240E5AC
:1003600050E05A83498380E590E098878F83F0902E
:1003700033015F9B03C0CED580933301E0913301FD
:100380008E2F90E0FC01F197E734F10508F0D4C41A
:10039000EA5BFF4F0C94130A69817A8189E191E04D
:1003A00080D59FE093BF87B7826087BFECE7E1BF4E
:1003B0008091130190911401893C9D4128F468E8D3
:1003C00073E180E04FD516C0809113019091140124
:1003D000893C9D4178F017BE1092140110921301D0
:1003E00060E070E080E03ED582E08093120135E667
:1003F000309333018091130190911401833597401C
:1004000008F47CC0809113019091140187319141CF
:1004100008F074C060912101709122018091230144
:100420009091240198D66B017C01B10180E090E0AD
:1004300090D62B013C0120E030E040EC5FE33FD759
:100440004B015C019B01AC01C701B60116D68823A4
:10045000BCF581E08093180161E070E089E191E0F2
:1004600042D56091210170912201809123019091E8
:10047000240171D66B017C012DEC3CEC4CE85FE370
:10048000C301B2011CD79B01AC01C701B60113D750
:10049000181634F5003A81E4180738F001501109B4
:1004A000E8E2F0E0FA83E98329C00437F0E41F07AB
:1004B000E0F40F5F1F4F28E230E03A8329831EC02B
:1004C000A5019401C701B601F6D688239CF01092CD
:1004D000180187B717BE48E250E05A8349830EC01F
:1004E00088E290E09A83898309C0E8E2F0E0FA8329
:1004F000E98304C028E230E03A8329838091130124
:10050000909114018731914108F492C080911301B8
:10051000909114018436994108F08AC060912101BC
:1005200070912201809123019091240114D66B01D6
:100530007C01B10180E090E00CD62B013C012DEC58
:100540003CEC4CE45EE3BBD64B015C019B01AC018F
:10055000C701B601B0D61816BCF581E0809318012A
:100560006FEF7FEF89E191E0BED46091210170913E
:1005700022018091230190912401EDD56B017C0132
:100580002AE939E949E15FE3C301B20198D69B0149
:10059000AC01C701B6018FD61816BCF5043C5BE36D
:1005A000150738F00150110984E190E09A8389839E
:1005B0003FC008399AE3190768F50F5F1F4FE4E160
:1005C000F0E0FA83E98334C0A5019401C701B601C4
:1005D00054D5181624F11092180187B717BE0433AA
:1005E000F3E51F0738F00150110924E130E03A83A8
:1005F00029831EC0083032E51307B0F40F5F1F4F88
:1006000044E150E05A83498313C084E190E09A8327
:1006100089830EC0E4E1F0E0FA83E98309C024E1B4
:1006200030E03A83298304C044E150E05A8349838F
:1006300080911301909114018436994108F44EC0C1
:1006400080911301909114018C349D4108F046C0B3
:100650008091210190912201A0912301B091240168
:10066000181619061A061B068CF581E080931801EE
:100670006FEF7FEF89E191E036D4609121017091B5
:100680002201809123019091240165D56B017C01A9
:10069000B10180E090E05DD52DEC3CEC4CEC5DE3ED
:1006A0000ED69B01AC01C701B601E7D48823B4F490
:1006B000043CFBE31F0718F0015011090FC0083973
:1006C0002AE3120758F40F5F1F4F08C01092180159
:1006D00087B717BE4CE350E05A834983980136959B
:1006E000279536952795ABE3BDE6A6D6BC01769552
:1006F0006795729562956F7067277F70672784E0B2
:1007000056D335CE8091210190912201A0912301F1
:10071000B0912401A10160E070E084179507A6075D
:10072000B70744F4BB2334F061E070E089E191E065
:10073000DAD323C084179507A607B707A1F48091E1
:100740001801813031F41092180116D452E65093FA
:10075000330180911201813081F488E091E0E0D38F
:10076000109212010AC0481759076A077B072CF438
:100770006FEF7FEF89E191E0B6D3043383E518078B
:1007800018F00150110906C0083092E5190710F45D
:100790000F5F1F4F98013695279536952795ABE348
:1007A000BDE64AD6BC0176956795729562956F70E5
:1007B00067277F70672784E0FAD2D9CD47E550E0FC
:1007C0006BE570E08AE590E02DD3E1D380911601CE
:1007D00090911701059709F4CACD8F8198850296EB
:1007E00020911601309117018217930728F468EEC3
:1007F00073E081E037D3BBCD2F813885225031099A
:1008000040911601509117014217530728F468EEE2
:1008100073E080E027D3ABCD4091160150911701D2
:100820004217530708F4A3CD209116013091170108
:100830008217930708F49BCD81E08093120160E05A
:1008400070E080E00FD3409102015091030160916C
:100850000401709105018091060190910701E2D297
:10086000EFEFF9E628E1E150F0402040E1F700C069
:100870000000109217011092160132E730933301F5
:1008800076CD6CE370E089E191E00BD3809121019A
:1008900090912201A0912301B0912401A10160E077
:1008A00070E084179507A607B70744F4BB2334F01C
:1008B00061E070E089E191E016D31AC084179507D2
:1008C000A607B70759F417BE80911201823081F450
:1008D0008BE091E025D3109212010AC04817590706
:1008E0006A077B072CF46FEF7FEF89E191E0FBD281
:1008F000043343E5140718F00150110906C008300D
:1009000052E5150710F40F5F1F4F98013695279594
:1009100036952795ABE3BDE68FD5BC0176956795F7
:10092000729562956F7067277F70672784E03FD26A
:100930001ECD8B819C818115EDE79E0724F48851A3
:100940009C4F9C838B838B819C8168EE73E01AD5CE
:10095000862FE2D2F09233010ACD2B813C81283ED2
:1009600043E0340724F0285E33403C832B838B81A3
:100970009C8168EE73E006D5862FCED2F0923301CB
:10098000F6CCC980DA805FEFC51AD50A69817A8111
:1009900089E191E086D28C2DBFD2F0923301DA82C8
:1009A000C982E5CCC980DA8081E0C81AD1086981A2
:1009B0007A8189E191E075D28C2DAED2F09233012B
:1009C000DA82C982D4CC62E370E089E191E069D235
:1009D00094E6290E311C9101369527953695279579
:1009E000ABE7B4E129D59695879596D2F09233017D
:1009F000BECC62E370E089E191E053D2E4E62E1AC6
:100A0000310891013695279536952795ABE7B4E1E6
:100A100013D59695879580D2F0923301A8CC2F817B
:100A200038852B5F3F4F38872F838F8175D2F092A7
:100A300033019DCC4F8158854550510958874F83CC
:100A40008F816AD2F092330192CC6B817C8181E0FC
:100A500009D28DCC6B817C8180E004D288CC698105
:100A60007A8189E191E01DD2C101A0E0B0E040911E
:100A700021015091220160912301709124014817B6
:100A800059076A077B074CF481E08093180161E005
:100A900070E089E191E027D26ACC1092180187B703
:100AA00017BE1D9A64CC69817A8189E191E0F9D100
:100AB0008091210190912201A0912301B091240104
:100AC000181619061A061B064CF481E080931801CB
:100AD0006FEF7FEF89E191E006D249CC10921801C7
:100AE00087B717BE1D9A1092330141CC44E150E004
:100AF00060EA70E080E090E095D139CC48E550E0C4
:100B000068E570E08AE590E08DD131CC6091040118
:100B100070910501CB01019690930501809304012A
:100B200082E045D1E4E0F1E08081F6D1109233011A
:100B30001ECC6091040170910501CB010197909347
:100B400005018093040182E032D1E4E0F1E080818C
:100B5000E3D1109233010BCC60910201709103013B
:100B6000CB010197909303018093020183E01FD191
:100B7000E2E0F1E08081D0D110923301F8CB6091B6
:100B8000020170910301CB010196909303018093C0
:100B9000020183E00CD1E2E0F1E08081BDD110924E
:100BA0003301E5CB40902101509022016090230158
:100BB0007090240153014201AA24BB242D813E815F
:100BC000B90180E090E0C5D22FE832EC45EB5EE35E
:100BD00058D220E030E040E85FE3EBD16B017C01CC
:100BE000C301B201681979098A099B09B4D2A70126
:100BF000960143D28823CCF461E070E089E191E072
:100C000072D18091210190912201A0912301B09194
:100C10002401BC01CD01681979098A099B099BD27D
:100C2000A70196012AD288233CF31092180187B7B6
:100C300017BE109233019BCB4090210150902201AE
:100C4000609023017090240153014201AA24BB2427
:100C50004D815E81BA0180E090E07BD22FE832ECDA
:100C600045EB5EE30ED220E030E040E85FE3A1D147
:100C70006B017C01C501B4016419750986099709E6
:100C80006AD2A7019601F9D18823DCF46FEF7FEFD8
:100C900089E191E028D18091210190912201A091D8
:100CA0002301B0912401A5019401281B390B4A0BA3
:100CB0005B0BCA01B9014FD2A7019601DED188238F
:100CC0002CF31092180187B717BE109233014FCB47
:100CD0004D815E81465F5F4F5E834D839A01ADEC2F
:100CE000BCECAAD39695879596958795969587950A
:100CF00013D1109233013BCB8D819E810A979E8345
:100D00008D839C01ADECBCEC97D396958795969519
:100D100087959695879500D11092330128CB8EE068
:100D200091E0FED01092330122CB31D18091160197
:100D300090911701F1D01BCB1092180117BE1092A1
:100D400014011092130160E070E080E08BD060919C
:100D500006017091070181E02AD060910401709131
:100D6000050182E024D0609102017091030183E0CB
:100D70001ED0FDCA8AEA8FBD2AE12EBD8FE39CE911
:100D800097BD86BD32EA30938B0020938A00909302
:100D9000810080938000109285001092840080E88A
:100DA0008ABB82B1886382B980EE87BB08958230A6
:100DB000A1F018F4813031F008958330C9F0843007
:100DC00021F1089524E1269FC001279F900D112451
:100DD00080559B4F9BBD8ABD089524E1269FC0018D
:100DE000279F900D112480559B4F99BD88BD089574
:100DF00024E1269FC001279F900D112480559B4F11
:100E00009093790080937800089524E1269FC00193
:100E1000279F900D112480559B4F909387008093BE
:100E20008600089524E1FC012E9FC0012F9F900DA4
:100E3000112480559B4F9BBD8ABD269FC001279FD3
:100E4000900D112480559B4F99BD88BD249FC001F2
:100E5000259F900D112480559B4F9093790080938E
:100E600078000895813011F4DF9A04C0811102C026
:100E70008BB31BBA70938500609384000895FC01C6
:100E80008FEF84BB15BA6083418381E090E0938348
:100E900082831086118612861386148A82E085BBAF
:100EA0000895FC0180818230E9F480E991E0689F37
:100EB0009001699F300D789F300D1124A9E8B8E8A2
:100EC000BBD296958795929582958F7089279F7052
:100ED00089279C0140E050E062E17AE780E090E001
:100EE00086D223BD0895FC012081223091F421E0B7
:100EF000209318012CE025BD20E827BF22813381F3
:100F00002617370731F035B324E0232725BB738339
:100F1000628308958CB108955D9BFECF8CB90895CE
:100F2000CF93DF93EC018881882329F02196F4DFA9
:100F300089918111FCCFDF91CF9108959C0140E010
:100F400050E060E472E48FE090E02FD2215031094C
:100F50003093900029B91BB898E19AB986E0809344
:100F60009500309398002093990010929B009093E5
:100F70009A0080939D000895129A80EB8ABF80ECBE
:100F800089BF8AE083BF17BE83E181BF08951A9AA3
:100F900025E32A95F1F7000083B113B88FEF90E7AE
:100FA00022E0815090402040E1F700C00000089509
:100FB0005058BB27AA270ED044C135D130F03AD1C2
:100FC00020F031F49F3F11F41EF42AC10EF4E09595
:100FD000E7FB20C1E92F46D180F3BA1762077307F8
:100FE0008407950718F071F49EF55EC10EF4E09544
:100FF0000B2EBA2FA02D0B01B90190010C01CA01D3
:10100000A0011124FF27591B99F0593F50F4503E7D
:1010100068F11A16F040A22F232F342F4427585F6F
:10102000F3CF469537952795A795F0405395C9F787
:101030007EF41F16BA0B620B730B840BBAF091503F
:10104000A1F0FF0FBB1F661F771F881FC2F70EC0DE
:10105000BA0F621F731F841F48F4879577956795B1
:10106000B795F7959E3F08F0B3CF9395880F08F09A
:101070009927EE0F979587950895A8D008F481E0F9
:1010800008950CD0DEC0D6D040F0CDD030F021F4A1
:101090005F3F19F0BFC0511108C1C2C0E3D098F33F
:1010A0009923C9F35523B1F3951B550BBB27AA27E9
:1010B00062177307840738F09F5F5F4F220F331F5B
:1010C000441FAA1FA9F333D00E2E3AF0E0E830D027
:1010D00091505040E695001CCAF729D0FE2F27D02A
:1010E000660F771F881FBB1F261737074807AB07F8
:1010F000B0E809F0BB0B802DBF01FF2793585F4F6D
:101100002AF09E3F510568F085C0CFC05F3FECF3E9
:10111000983EDCF3869577956795B795F7959F5F31
:10112000C9F7880F911D9695879597F90895E1E085
:10113000660F771F881FBB1F621773078407BA07E4
:1011400020F0621B730B840BBA0BEE1F88F7E0953F
:101150000895E89409C097FB3EF4909580957095AA
:1011600061957F4F8F4F9F4F9923A9F0F92F96E9F3
:10117000BB279395F695879577956795B795F11168
:10118000F8CFFAF4BB0F11F460FF1BC06F5F7F4F05
:101190008F4F9F4F16C0882311F096E911C0772317
:1011A00021F09EE8872F762F05C0662371F096E820
:1011B000862F70E060E02AF09A95660F771F881FEF
:1011C000DAF7880F9695879597F90895990F000893
:1011D000550FAA0BE0E8FEEF16161706E807F90709
:1011E000C0F012161306E407F50798F0621B730BA4
:1011F000840B950B39F40A2661F0232B242B252B25
:1012000021F408950A2609F4A140A6958FEF811DC7
:10121000811D089597F99F6780E870E060E0089568
:101220009FEF80EC089500240A94161617061806FE
:101230000906089500240A941216130614060506DA
:101240000895092E0394000C11F4882352F0BB0F6B
:1012500040F4BF2B11F460FF04C06F5F7F4F8F4FCE
:101260009F4F089557FD9058440F551F59F05F3F09
:1012700071F04795880F97FB991F61F09F3F79F0B8
:1012800087950895121613061406551FF2CF46953A
:10129000F1DF08C0161617061806991FF1CF8695BC
:1012A0007105610508940895E894BB2766277727A0
:1012B000CB0197F908958ADF08F48FEF08950BD0DA
:1012C000C0CFB1DF28F0B6DF18F0952309F0A2CF28
:1012D000A7CF1124EACFC6DFA0F3959FD1F3950FD6
:1012E00050E0551F629FF001729FBB27F00DB11DAA
:1012F000639FAA27F00DB11DAA1F649F6627B00D3A
:10130000A11D661F829F2227B00DA11D621F739F22
:10131000B00DA11D621F839FA00D611D221F749F30
:101320003327A00D611D231F849F600D211D822F77
:10133000762F6A2F11249F5750408AF0E1F08823BE
:101340004AF0EE0FFF1FBB1F661F771F881F9150CB
:101350005040A9F79E3F510570F05CCFA6CF5F3F8C
:10136000ECF3983EDCF3869577956795B795F795FE
:10137000E7959F5FC1F7FE2B880F911D9695879586
:1013800097F9089597FB072E16F4009406D077FD81
:1013900008D061D007FC05D03EF4909581959F4F11
:1013A0000895709561957F4F0895A1E21A2EAA1BAA
:1013B000BB1BFD010DC0AA1FBB1FEE1FFF1FA21705
:1013C000B307E407F50720F0A21BB30BE40BF50B02
:1013D000661F771F881F991F1A9469F7609570958B
:1013E000809590959B01AC01BD01CF010895052E1C
:1013F00097FB16F400940FD057FD05D0D6DF07FCFD
:1014000002D046F408C050954095309521953F4F45
:101410004F4F5F4F089590958095709561957F4FE0
:101420008F4F9F4F0895EE0FFF1F0024001C0BBE2F
:101430000790F691E02D0994A29FB001B39FC001DF
:10144000A39F700D811D1124911DB29F700D811DF0
:101450001124911D0895AA1BBB1B51E107C0AA1FAF
:10146000BB1FA617B70710F0A61BB70B881F991F45
:101470005A95A9F780959095BC01CD010895F894EF
:02148000FFCF9C
:1014820046001200A40003005E72005E65005E6307
:02149200000058
:00000001FF
