S02200005F33445F7363616E6E65725F6875626D6F746F725F302E302E342E73726563C5
S113000045C0000060C000005EC000005CC000008D
S11300105AC0000058C0000056C00000C9C000000B
S1130020D8C0000051C000004EC000004CC0000009
S11300304AC0000048C0000046C00000A2C0000042
S113004042C0000040C000003EC000003CC00000B0
S11300503AC0000038C0000036C0000034C00000C0
S113006032C0000030C000002EC000002CC00000D0
S11300702AC0000028C0000026C0000024C00000E0
S113008022C0000020C000001EC0000011241FBEBA
S1130090CFEFD0E1DEBFCDBF11E0A0E0B1E0E0EBF7
S11300A0F7E000E00BBF02C007900D92AC30B1073F
S11300B0D9F721E0ACE0B1E001C01D92AE32B20745
S11300C0E1F7B6D073C39CCF1F920F920FB60F9275
S11300D011240BB60F922F933F934F935F936F931B
S11300E07F938F939F93AF93BF93EF93FF9323B12A
S11300F09091120130E2939FC0011124822783B9A9
S113010020911201E3E1F1E082819381289FA00113
S1130110299F500D1124052E000C660B770B84814A
S11301209581A681B781480F591F6A1F7B1F44839D
S1130130558366837783DB01CA0177231CF4019618
S1130140A11DB11DB595A7959795879580931B0122
S113015090931C01A0931D01B0931E01FF91EF9198
S1130160BF91AF919F918F917F916F915F914F91CB
S11301703F912F910F900BBE0F900FBE0F901F90C9
S113018018951F920F920FB60F9211248F939F937D
S113019080910D0190910E01019690930E01809330
S11301A00D019F918F910F900FBE0F901F90189586
S11301B01F920F920FB60F9211248F9387B782600C
S11301C087BF83E181BF8F910F900FBE0F901F9067
S11301D018951F920F920FB60F9211242F933F93ED
S11301E06F937F938F939F93AF93BF9387B717BEFC
S11301F020910D0130910E01ABEABAEA8BD29695AB
S1130200879596958795909311018093100110928C
S11302100E0110920D01BF91AF919F918F917F912B
S11302206F913F912F910F900FBE0F901F901895D3
S1130230F89442E062E083E191E074D11BD16091D3
S113024006017091070181E032D16091040170913F
S1130250050182E02CD1609102017091030183E0D9
S113026026D1609100017091010184E020D180E0E9
S113027096E9E0D110920E0110920D0110920F0137
S113028010921101109210016EE170E083E191E08F
S11302905BD180E380932D01789481E080930C01FD
S11302A0E12CF12C0F2EF6E4CF2ED12CF02D0EE103
S11302B010E0D1E00F2EF0E2AF2EFCE1BF2EF02DC6
S11302C0C0912D015F9B03C078D180932D01809153
S11302D02D01833669F038F4813309F44EC082333A
S11302E009F47AC0EDCF813721F1873799F1E8CF4E
S11302F0B80183E191E028D180911B0190911C0108
S1130300A0911D01B0911E01181619061A061B06AC
S113031044F4D09312016FEF7FEF83E191E036D183
S1130320CFCF1092120187B717BE1D9A10922D01DC
S1130330C7CF480121E0821A9108B80183E191E016
S113034003D188E091E03FD1C4014BD1C0932D018A
S11303508401B6CF48018FEF881A980AB80183E167
S113036091E0F2D0C4013DD188E091E02CD1C401E8
S113037038D1C0932D018401A3CF66E470E084E0FA
S113038096D080911B0190911C01A0911D01B09108
S11303901E01843F21E09207A105B10530F461E01C
S11303A070E083E191E0F2D08BCF843F9140A105CE
S11303B0B10509F085CF80911201813029F41092A2
S11303C0120110922D0105C080910C01813009F0B9
S11303D077CF10920C0174CF80911B0190911C0176
S11303E0A0911D01B0911E01883C9105A105B105A4
S11303F030F46FEF7FEF83E191E0C8D061CF883CA8
S11304009105A105B105B1F480911201813029F45F
S11304101092120110922D0105C080910C018130BF
S113042009F04ECF10920C010F2EF6E4CF2ED12CF2
S1130430F02D46CF893C9105A105B1050CF440CFC0
S11304406FEF7FEF83E191E0A1D08FEFE81AF80A14
S1130450C701B5010DD1892B09F032CF27E4C216AB
S1130460D10408F02DCF8FEFC81AD80AB60184E062
S11304701ED026CF8AEA8FBD2AE12EBD8FE39CE9E8
S113048097BD86BD32EA30938B0020938A00909307
S1130490810080938000109285001092840080E88F
S11304A08ABB82B1886382B980EE87BB08958230AB
S11304B0A1F018F4813031F008958330C9F084300C
S11304C021F1089524E1269FC001279F900D112456
S11304D080559B4F9BBD8ABD089524E1269FC00192
S11304E0279F900D112480559B4F99BD88BD089579
S11304F024E1269FC001279F900D112480559B4F16
S11305009093790080937800089524E1269FC00198
S1130510279F900D112480559B4F909387008093C3
S113052086000895FC018FEF84BB15BA6083418374
S113053081E090E09383828310861186128613866D
S1130540148A82E085BB0895FC0180818230E9F43D
S113055080E991E0689F9001699F300D789F300D8C
S11305601124A9E8B8E8D6D09695879592958295F6
S11305708F7089279F7089279C0140E050E062E1D9
S11305807AE780E090E0AAD023BD0895FC012081A1
S1130590223091F421E0209312012CE025BD20E8C3
S11305A027BF228133812617370731F035B324E082
S11305B0232725BB7383628308958CB108955D9BC3
S11305C0FECF8CB90895CF93DF93EC018881882303
S11305D029F02196F4DF89918111FCCFDF91CF912D
S11305E008950F931F93CF93DF93CDB7DEB72A9768
S11305F00FB6F894DEBF0FBECDBF4AE050E0BE0197
S11306006F5F7F4F96D08981882349F08E010E5FFA
S11306101F4FD5DFF80181918F018111FACF2A96FE
S11306200FB6F894DEBF0FBECDBFDF91CF911F91FF
S11306300F9108959C0140E050E060E472E48FE083
S113064090E02AD0215031093093900029B91BB889
S113065098E19AB986E080939500309398002093AE
S1130660990010929B0090939A0080939D000895A6
S1130670AA1BBB1B51E107C0AA1FBB1FA617B707C4
S113068010F0A61BB70B881F991F5A95A9F78095E0
S11306909095BC01CD010895A1E21A2EAA1BBB1BA3
S11306A0FD010DC0AA1FBB1FEE1FFF1FA217B3073A
S11306B0E407F50720F0A21BB30BE40BF50B661F50
S11306C0771F881F991F1A9469F760957095809514
S11306D090959B01AC01BD01CF010895052E97FBB8
S11306E016F400940FD057FD05D0D6DF07FC02D0D6
S11306F046F408C050954095309521953F4F4F4F93
S11307005F4F089590958095709561957F4F8F4FB9
S11307109F4F0895A29FB001B39FC001A39F700D86
S1130720811D1124911DB29F700D811D1124911DF5
S113073008954532510518F4423008F004C0FB0115
S11307401082CB010895BB274A3031F4992322F457
S1130750BDE2909581959F4F01C0BB27FB015527B2
S1130760AA27880F991FAA1FA41710F0A41B83950A
S11307705051B9F7A05DAA3308F0A95DA193009781
S113078079F7B111B1931192CB0100C0DC01FC01E6
S1130790672F71917723E1F7329704C07C916D93B1
S11307A070836291AE17BF07C8F30895F894FFCF22
S10F07B046001200A40003002A2A2A00BC
S9030000FC
